:100000000C9434000C943E000C943E000C943E0082
:100010000C943E000C943E000C943E000C943E0068
:100020000C943E000C943E000C943E000C943E0058
:100030000C943E000C943E000C943E000C943E0048
:100040000C943E000C943E000C943E000C943E0038
:100050000C943E000C943E000C943E000C943E0028
:100060000C943E000C943E0011241FBECFEFD8E04C
:10007000DEBFCDBF0E9469000C946C000C940000A0
:10008000219A229A239A559A569A539A23EF24BD7D
:1000900095E095BD17BC8FEF88BD2093B00090937D
:1000A000B1001092B3008093B40081EF8093800080
:1000B0008DE08093810010928900109288008FEF6C
:1000C00090E090938B0080938A00089590E080E008
:0C00D00008950E944000FFCFF894FFCF7D
:00000001FF
