:100000000C9440000C945D000C945D000C945D0019
:100010000C945D000C945D000C945D000C945D00EC
:100020000C945D000C945D000C945D000C945D00DC
:100030000C945D000C945D000C945D000C945D00CC
:100040000C945D000C945D000C945D000C945D00BC
:100050000C945D000C945D000C945D000C945D00AC
:100060000C945D000C94830045464765666700204C
:100070002B2D2E3031323334353637383968000085
:1000800011241FBECFEFD8E0DEBFCDBF13E0A0E04C
:10009000B1E0E4E4F6E002C005900D92AC3CB1079B
:1000A000D9F724E0ACECB3E001C01D92A03DB2074B
:1000B000E1F70E9439020C9420030C940000909107
:1000C000CD03E92FF0E0E253FC4F80839F5F9F77E1
:1000D0009093CD0390E080E008959091CC038091BF
:1000E000CD03981769F0E92FF0E0E05BFB4F8081CA
:1000F0009F5F9F779093CC03082E000C990B089577
:1001000090E080E008958F938FB78F939F93EF9344
:10011000FF9380914F049091C600E82FF0E0E05BE0
:10012000FB4F90838F5F8F7780934F04FF91EF9108
:100130009F918F918FBF8F911895699A9093C50069
:100140008093C40088E98093C10086E08093C20058
:1001500008950F931F93CF93DF938CE090E00E945C
:100160009D00789400E111E0E0E7F1E081818F9358
:1001700080818F93C0E0D1E0DF93CF930E94800213
:10018000F80187818F9386818F93DF93CF930E94AD
:100190008002ECE5F1E081818F9380818F93DF9382
:1001A000CF930E94800282E791E09F938F93F801A2
:1001B00085858F9384858F93DF93CF930E948002F0
:1001C0008CE791E09F938F93F80183A18F9382A195
:1001D0008F93DF93CF930E9480021F921F92F801AA
:1001E00083898F9382898F93DF93CF930E948002BC
:1001F000F80183818F9382818F93DF93CF930E9445
:100200008002EDB7FEB7B2960FB6F894FEBF0FBEF0
:10021000EDBFDF91CF911F910F910895E091CC0335
:100220008091CD038E1781F08091C00085FF0CC0B6
:10023000F0E0E253FC4F80818093C6008091CC03B4
:100240008F5F8F778093CC030895AFE0B0E0EBE24F
:10025000F1E00C9442025C016B013A01DC0117965B
:100260001C921E92169713968C9181FFFFC0FE017F
:1002700031964F01D5011396FC90F601F3FC1591D0
:10028000F3FE11916F01112341F1153239F4F3FCA2
:100290001591F3FE11916F01153241F5B501812FD2
:1002A00090E00E949202E6CF1123B9F0612F70E036
:1002B0008FE690E00E947502892B29F41332A1F099
:1002C0001C36B1F40068F601F3FC1591F3FE1191B0
:1002D0006F0107FFE9CF11110BC0F50186819781EE
:1002E0002F96EEE00C945E0200E1EDCF00E0F1CF3E
:1002F000612F70E088E690E00E947502892B39F04A
:10030000B4E06B0E711CB5018FE390E0CACF1336D9
:1003100009F455C0133709F459C0133509F455C011
:10032000143619F0193609F06CC007FF61C0F301EB
:1003300061917191819191913F010F7E97FF08C06A
:1003400090958095709561957F4F8F4F9F4F00647A
:100350002AE030E0A4010E94C202E82EE81806FF5D
:1003600005C0B5018DE290E00E94920204FF15C025
:10037000FE01EE0DF11D8081803379F0B50180E33F
:1003800090E00E94920202FF08C0902F9072985A4B
:10039000B501892F90E00E949202EA94F12C5FEF60
:1003A000E51AF50AE80CF91CD7018E917D01B5011B
:1003B00090E00E949202E814F904B1F75BCFB50116
:1003C000F301819191913F016CCF0160D301ED90D8
:1003D000FD903D01F70100FD859100FF81917F01B6
:1003E000882309F447CFB50190E00E949202F2CF32
:1003F000D3016D917D913D01072E000C880B990B67
:100400009CCF1037A1F038F4183599F01F3609F059
:1004100064CF28E00AC0153731F0183709F05DCFF6
:10042000046220E102C00F7E2AE030E005C00061D6
:10043000F7CF046020E132E007FF10C0D3014D91F7
:100440005D916D917D913D014C875D876E877F87C2
:10045000A4016C857D858E859F857DCFF30181917B
:1004600091913F01AC0170E060E0EECF8FEF9FEF24
:1004700037CF0E94A9000E940E01FDCF2F923F921C
:100480004F925F926F927F928F929F92AF92BF92A4
:10049000CF92DF92EF92FF920F931F93CF93DF9350
:1004A000CDB7DEB7CA1BDB0B0FB6F894DEBF0FBEAD
:1004B000CDBF09942A88398848885F846E847D84FA
:1004C0008C849B84AA84B984C884DF80EE80FD80FC
:1004D0000C811B81AA81B981CE0FD11D0FB6F89472
:1004E000DEBF0FBECDBFED010895FC0105900616DD
:1004F00021F00020D9F7C00108953197CF01089568
:10050000B0E0A0E0E6E8F2E00C944E02AE01475FF6
:100510005F4F6F8178858D819E810E942501E2E089
:100520000C946A020F931F93CF93DF93182F092F18
:10053000EB018B8181FD09C01FEF0FEF812F902F01
:10054000DF91CF911F910F91089582FF14C02E81EA
:100550003F818C819D81281739073CF4E881F9811E
:10056000CF0101969983888310838E819F810196A4
:100570009F838E83E3CFE885F985812F0995892BA9
:10058000A1F3DACFFA01AA27283051F1203181F105
:10059000E8946F936E7F6E5F7F4F8F4F9F4FAF4F8B
:1005A000B1E03ED0B4E03CD0670F781F891F9A1F9E
:1005B000A11D680F791F8A1F911DA11D6A0F711D52
:1005C000811D911DA11D20D009F468943F912AE05E
:1005D000269F11243019305D3193DEF6CF01089546
:1005E000462F4770405D4193B3E00FD0C9F7F6CF77
:1005F000462F4F70405D4A3318F0495D31FD40523F
:10060000419302D0A9F7EACFB4E0A69597958795D4
:1006100077956795BA95C9F70097610571050895B3
:100620009B01AC010A2E069457954795379527955F
:10063000BA95C9F7620F731F841F951FA01D0895F7
:04064000F894FFCF5C
:1006440000000003000000005F006D0000003100A6
:10065400810185018F019C01A501AF01B901C5018B
:10066400D301DD01E901F40101020A0215021F02AE
:1006740031023B024702510263026E027B02850291
:1006840091029C02AC02BA02C402D002DC02F30260
:10069400FE021403230332033C034B035803620397
:1006A4006E03780382038D0396039E03A703B603A8
:1006B400C203436F7070486F727365003433323114
:1006C4000041540A0041542B52455345540A0041F9
:1006D400542B56455253494F4E3F0A0041542B4F19
:1006E40052474C0A0041542B414444523F0A0041B2
:1006F400542B4E414D453F0A0041542B4E414D452C
:100704003D25730A0041542B524E414D453F20254F
:10071400730A0041542B524F4C453F0A0041542B5D
:10072400524F4C453D25640A0041542B434C4153E0
:10073400533F0A0041542B434C4153533D25730A04
:100744000041542B4941433F0A0041542B49414342
:100754003D25640A0041542B494E514D3F0A004146
:10076400542B494E514D3D25642C25642C25640A97
:100774000041542B505357443F0A0041542B5053CB
:1007840057443D25730A0041542B554152543F0AA6
:100794000041542B554152543D25642C25642C258D
:1007A400640A0041542B434D4F44453F0A004154D1
:1007B4002B434D4F44453D25640A0041542B424987
:1007C4004E443F0A0041542B42494E443D25730A8E
:1007D4000041542B504F4C41523F0A0041542B507E
:1007E4004F4C41523D25642C25640A0041542B5042
:1007F400494F3D25642C25640A0041542B4D504932
:100804004F3F0A0041542B4D50494F3D25640A0087
:1008140041542B49505343414E3F0A0041542B4904
:10082400505343414E3D25642C25642C25642C25CE
:10083400640A0041542B534E4946463F0A00415432
:100844002B534E4946463D25642C25642C25642CA7
:1008540025640A0041542B454E534E4946463D25D6
:10086400730A0041542B4558534E4946463D25735F
:100874000A0041542B53454E4D3F0A0041542B531B
:10088400454E4D3D25642C25640A0041542B504DA2
:100894005341443D25730A0041542B524D41414478
:1008A4000A0041542B465341443D25730A004154E8
:1008B4002B4144434E3F0A0041542B4D5241443F87
:1008C4000A0041542B53544154453F0A0041542BD0
:1008D400494E49540A0041542B494E510A0041548F
:1008E4002B494E51430A0041542B504149523D2556
:1008F400732C25640A0041542B4C494E4B3D2573FF
:0C0904000A0041542B444953430A0000F0
:00000001FF
